{"abi":[{"type":"function","name":"authorizeGroupKey","inputs":[{"name":"keyX","type":"uint256","internalType":"uint256"},{"name":"keyY","type":"uint256","internalType":"uint256"}],"outputs":[],"stateMutability":"nonpayable"},{"type":"function","name":"authorizedGroupKeys","inputs":[{"name":"","type":"bytes32","internalType":"bytes32"}],"outputs":[{"name":"","type":"bool","internalType":"bool"}],"stateMutability":"view"},{"type":"function","name":"createOption","inputs":[{"name":"optionId","type":"bytes32","internalType":"bytes32"},{"name":"counterparty","type":"address","internalType":"address"},{"name":"conditionCommit","type":"bytes32","internalType":"bytes32"},{"name":"ttlSeconds","type":"uint256","internalType":"uint256"}],"outputs":[],"stateMutability":"payable"},{"type":"function","name":"isGroupKeyAuthorized","inputs":[{"name":"keyX","type":"uint256","internalType":"uint256"},{"name":"keyY","type":"uint256","internalType":"uint256"}],"outputs":[{"name":"","type":"bool","internalType":"bool"}],"stateMutability":"view"},{"type":"function","name":"options","inputs":[{"name":"","type":"bytes32","internalType":"bytes32"}],"outputs":[{"name":"alice","type":"address","internalType":"address"},{"name":"bob","type":"address","internalType":"address"},{"name":"conditionCommitment","type":"bytes32","internalType":"bytes32"},{"name":"payoutAmount","type":"uint256","internalType":"uint256"},{"name":"expiresAt","type":"uint256","internalType":"uint256"},{"name":"settled","type":"bool","internalType":"bool"}],"stateMutability":"view"},{"type":"function","name":"owner","inputs":[],"outputs":[{"name":"","type":"address","internalType":"address"}],"stateMutability":"view"},{"type":"function","name":"revokeGroupKey","inputs":[{"name":"keyX","type":"uint256","internalType":"uint256"},{"name":"keyY","type":"uint256","internalType":"uint256"}],"outputs":[],"stateMutability":"nonpayable"},{"type":"function","name":"settle","inputs":[{"name":"optionId","type":"bytes32","internalType":"bytes32"},{"name":"att","type":"tuple","internalType":"struct TLSAttestation.Attestation","components":[{"name":"statementDigest","type":"bytes32","internalType":"bytes32"},{"name":"dvrf_value","type":"bytes32","internalType":"bytes32"},{"name":"envelopeDigest","type":"bytes32","internalType":"bytes32"},{"name":"groupKeyX","type":"uint256","internalType":"uint256"},{"name":"groupKeyY","type":"uint256","internalType":"uint256"},{"name":"sigRX","type":"uint256","internalType":"uint256"},{"name":"sigS","type":"uint256","internalType":"uint256"},{"name":"threshold","type":"uint8","internalType":"uint8"},{"name":"verifierCount","type":"uint8","internalType":"uint8"}]},{"name":"winner","type":"address","internalType":"address payable"}],"outputs":[],"stateMutability":"nonpayable"},{"type":"function","name":"verify","inputs":[{"name":"message_hash","type":"bytes32","internalType":"bytes32"},{"name":"pk_x","type":"uint256","internalType":"uint256"},{"name":"pk_y","type":"uint256","internalType":"uint256"},{"name":"sig_R_x","type":"uint256","internalType":"uint256"},{"name":"sig_s","type":"uint256","internalType":"uint256"}],"outputs":[{"name":"valid","type":"bool","internalType":"bool"}],"stateMutability":"view"},{"type":"function","name":"verifyAttestation","inputs":[{"name":"att","type":"tuple","internalType":"struct TLSAttestation.Attestation","components":[{"name":"statementDigest","type":"bytes32","internalType":"bytes32"},{"name":"dvrf_value","type":"bytes32","internalType":"bytes32"},{"name":"envelopeDigest","type":"bytes32","internalType":"bytes32"},{"name":"groupKeyX","type":"uint256","internalType":"uint256"},{"name":"groupKeyY","type":"uint256","internalType":"uint256"},{"name":"sigRX","type":"uint256","internalType":"uint256"},{"name":"sigS","type":"uint256","internalType":"uint256"},{"name":"threshold","type":"uint8","internalType":"uint8"},{"name":"verifierCount","type":"uint8","internalType":"uint8"}]}],"outputs":[{"name":"","type":"bool","internalType":"bool"}],"stateMutability":"nonpayable"},{"type":"function","name":"verifyRaw","inputs":[{"name":"raw","type":"bytes","internalType":"bytes"}],"outputs":[{"name":"","type":"bool","internalType":"bool"}],"stateMutability":"nonpayable"},{"type":"event","name":"AttestationAccepted","inputs":[{"name":"statementDigest","type":"bytes32","indexed":true,"internalType":"bytes32"},{"name":"randValue","type":"bytes32","indexed":false,"internalType":"bytes32"},{"name":"threshold","type":"uint8","indexed":false,"internalType":"uint8"}],"anonymous":false},{"type":"event","name":"AttestationRejected","inputs":[{"name":"statementDigest","type":"bytes32","indexed":true,"internalType":"bytes32"},{"name":"reason","type":"string","indexed":false,"internalType":"string"}],"anonymous":false},{"type":"event","name":"GroupKeyAuthorized","inputs":[{"name":"keyX","type":"uint256","indexed":true,"internalType":"uint256"},{"name":"keyY","type":"uint256","indexed":false,"internalType":"uint256"}],"anonymous":false},{"type":"event","name":"GroupKeyRevoked","inputs":[{"name":"keyX","type":"uint256","indexed":true,"internalType":"uint256"},{"name":"keyY","type":"uint256","indexed":false,"internalType":"uint256"}],"anonymous":false}],"bytecode":{"object":"0x60a08060405234610031573360805261124d908161003682396080518181816101040152818161026f01526107930152f35b5f80fdfe60806040526004361015610011575f80fd5b5f3560e01c80631717fcc9146100c4578063457726e6146100bf5780635b4c3543146100ba5780638da5cb5b146100b5578063959bb7a2146100b0578063a1f31281146100ab578063aefc5f15146100a6578063b59b6bd2146100a1578063d8d7facd1461009c578063e9839712146100975763eb32d63714610092575f80fd5b610821565b610800565b610753565b6105b3565b6104a4565b610469565b6103ec565b61025a565b6101e9565b61017c565b34610178576040366003190112610178576004357f30d6bc3d08e73db1b621ec0206f8e85e50e026a5bbd2c509a1e01b8ba4d6d9016020602435610132337f00000000000000000000000000000000000000000000000000000000000000006001600160a01b03161461084f565b60408051838101868152602081018490529161015b90829084015b03601f1981018352826102ef565b5190205f525f825260405f2060ff198154169055604051908152a2005b5f80fd5b346101785760203660031901126101785767ffffffffffffffff6004358181116101785736602382011215610178578060040135918211610178573660248383010111610178576101e59160246101d3920161089b565b60405190151581529081906020820190565b0390f35b34610178576020366003190112610178576004355f52600160205260c060405f2060018060a01b0390818154169160018201541690600281015460038201549060ff6005600485015494015416936040519586526020860152604085015260608401526080830152151560a0820152f35b34610178575f366003190112610178576040517f00000000000000000000000000000000000000000000000000000000000000006001600160a01b03168152602090f35b634e487b7160e01b5f52604160045260245ffd5b60e0810190811067ffffffffffffffff8211176102ce57604052565b61029e565b6040810190811067ffffffffffffffff8211176102ce57604052565b90601f8019910116810190811067ffffffffffffffff8211176102ce57604052565b60405190610120820182811067ffffffffffffffff8211176102ce57604052565b6040519060c0820182811067ffffffffffffffff8211176102ce57604052565b610104359060ff8216820361017857565b610124359060ff8216820361017857565b60e4359060ff8216820361017857565b61012090602319011261017857610399610311565b90602435825260443560208301526064356040830152608435606083015260a435608083015260c43560a083015260e43560c08301526103d7610352565b60e08301526103e4610363565b610100830152565b346101785761012036600319011261017857602061045f61040b610311565b60043581526024358382015260443560408201526064356060820152608435608082015260a43560a082015260c43560c0820152610447610374565b60e0820152610454610352565b6101008201526109d2565b6040519015158152f35b346101785760a036600319011261017857602061045f608435606435604435602435600435610c27565b6001600160a01b0381160361017857565b6080366003190112610178576105a26024356105386004356104c583610493565b5f81815260016020526040902054606435906104ea906001600160a01b031615610c83565b806105a457505f5b6105116104fd610332565b338152946001600160a01b03166020860152565b604435604085015234606085015260808401525f60a08401525f52600160205260405f2090565b815181546001600160a01b039182166001600160a01b0319918216178355602084015160018401805491909316911617905560a09060059060408401516002820155606084015160038201556080840151600482015501910151151560ff80198354169116179055565b005b6105ae9042610cdb565b6104f2565b346101785761016036600319011261017857600435610120366023190112610178575f8080806105a294600361014435916105ed83610493565b610710610602825f52600160205260405f2090565b91610703600584019161062561062061061c855460ff1690565b1590565b610ced565b845461014d906106f790610649906001600160a01b03165b6001600160a01b031690565b6001600160a01b038a1699908a14801561072e575b61066790610d2b565b61067f60048901548015908115610723575b50610d70565b61069861069361068e36610384565b6109d2565b610dad565b60405192839160208301958690916056927f746c732d6174746573746174696f6e2f62696e6172792d6f7074696f6e732f768352603160f81b602084015260228301526bffffffffffffffffffffffff199060601b1660428201520190565b51902060243514610def565b805460ff19166001179055565b0154905af161071d610e30565b50610e6f565b90504211155f610679565b5060018801546106679061074a906001600160a01b031661063d565b8b14905061065e565b34610178576040366003190112610178576004357f8b7e69c5be93891c0a94469c87107695bf29bcb2231db8e6f2364ae158e8ef8b60206024356107c1337f00000000000000000000000000000000000000000000000000000000000000006001600160a01b03161461084f565b6040805183810186815260208101849052916107e0908290840161014d565b5190205f525f825260405f20600160ff19825416179055604051908152a2005b3461017857604036600319011261017857602061045f602435600435610ead565b34610178576020366003190112610178576004355f525f602052602060ff60405f2054166040519015158152f35b1561085657565b60405162461bcd60e51b815260206004820152601960248201527f544c534174746573746174696f6e3a206e6f74206f776e6572000000000000006044820152606490fd5b61016082036109825761068e61097461095f61095161097f956108bc610ee1565b956108d06108ca8383610f36565b90610faa565b87526108df6108ca8383610f44565b60208801526108f16108ca8383610f55565b60408801526109036108ca8383610f66565b60608801526109156108ca8383610f77565b60808801526109276108ca8383610f88565b60a08801526109396108ca8383610f99565b60c088015261096f61096561095f6109518585610fc6565b356001600160f81b03191690565b60f81c90565b60ff1660e0890152565b610fe9565b60ff16610100830152565b90565b60405162461bcd60e51b815260206004820152602260248201527f544c534174746573746174696f6e3a2065787065637465642033353220627974604482015261657360f01b6064820152608490fd5b80518015610be5575060e081019060ff6109ed835160ff1690565b1615610ba057815160ff1660ff610a12610a0c61010085015160ff1690565b60ff1690565b911611610b4f57606081018051610a3261061c6080850192835190610ead565b610afc5790610a559160408401519151905160a08501519160c086015193610c27565b918215610aac577f618976a2b5926bfcf2218be3e245d72aa5cf745d31614323992994721137fd5190610a9060208451940151915160ff1690565b6040805192835260ff9091166020830152819081015b0390a290565b50515f805160206111f883398151915260405180610aa68160609060208152601760208201527f696e76616c69642046524f5354207369676e617475726500000000000000000060408201520190565b50509050515f805160206111f883398151915260405180610b4881606090602081526016602082015275756e617574686f72697a65642067726f7570206b657960501b60408201520190565b0390a25f90565b9050515f805160206111f883398151915260405180610b488160609060208152601960208201527f7468726573686f6c64203e207665726966696572436f756e740000000000000060408201520190565b9050515f805160206111f883398151915260405180610b48816060906020815260116020820152707468726573686f6c64206973207a65726f60781b60408201520190565b90505f805160206111f883398151915260405180610b488160609060208152600f60208201526e195b5c1d1e481cdd185d195b595b9d608a1b60408201520190565b93919290926040516020810195838752856040830152606082015260608152608081019581871067ffffffffffffffff8811176102ce5761097f9660405270014551231950b75fc4402da1732fc9bebe19915190200693611045565b15610c8a57565b60405162461bcd60e51b81526020600482015260156024820152744f7074696f6e20616c72656164792065786973747360581b6044820152606490fd5b634e487b7160e01b5f52601160045260245ffd5b91908201809211610ce857565b610cc7565b15610cf457565b60405162461bcd60e51b815260206004820152600f60248201526e105b1c9958591e481cd95d1d1b1959608a1b6044820152606490fd5b15610d3257565b60405162461bcd60e51b815260206004820152601660248201527557696e6e6572206d757374206265206120706172747960501b6044820152606490fd5b15610d7757565b60405162461bcd60e51b815260206004820152600e60248201526d13dc1d1a5bdb88195e1c1a5c995960921b6044820152606490fd5b15610db457565b60405162461bcd60e51b815260206004820152601360248201527224b73b30b634b21030ba3a32b9ba30ba34b7b760691b6044820152606490fd5b15610df657565b60405162461bcd60e51b81526020600482015260126024820152710a6e8c2e8cadacadce840dad2e6dac2e8c6d60731b6044820152606490fd5b3d15610e6a573d9067ffffffffffffffff82116102ce5760405191610e5f601f8201601f1916602001846102ef565b82523d5f602084013e565b606090565b15610e7657565b60405162461bcd60e51b815260206004820152600f60248201526e151c985b9cd9995c8819985a5b1959608a1b6044820152606490fd5b60408051602081019283529081019290925290610ecd816060810161014d565b5190205f525f60205260ff60405f20541690565b60405190610120820182811067ffffffffffffffff8211176102ce576040525f610100838281528260208201528260408201528260608201528260808201528260a08201528260c08201528260e08201520152565b906020116101785790602090565b906040116101785760200190602090565b906060116101785760400190602090565b906080116101785760600190602090565b9060a0116101785760800190602090565b9060c0116101785760a00190602090565b9060e0116101785760c00190602090565b359060208110610fb8575090565b5f199060200360031b1b1690565b9060ff1015610fd55760ff0190565b634e487b7160e01b5f52603260045260245ffd5b61011f91821015610fd5570190565b601c0390601c8211610ce857565b70014551231950b75fc4402da1732fc9bebe1990810391908211610ce857565b6401000003d01990810391908211610ce857565b6040513d5f823e3d90fd5b909392919261105384611139565b92831561112f5782806110f0926110cc6110af610a0c60016110a861063d60209d61014d6110995f9f604051926020918492830195869091604092825260208201520190565b5190206001600160a01b031690565b9c16610ff8565b9170014551231950b75fc4402da1732fc9bebe1994859109611006565b926040519687960992855260ff166020850152604084015260608301526080820190565b838052039060015afa1561112a575f516001600160a01b03908116801515929091908361111e575b50505090565b161490505f8080611118565b61103a565b5050505050505f90565b906007916401000003d01992838281818195090908604051602061118e8183019282845282604082015282606082015284608082015263400000f4600160fe1b0360a08201528660c082015260c081526102b2565b6040519161119b836102d3565b81835260c0828401918336843760055afa15610178576111ba906111e3565b92600184166111d3575b838009036111ce57565b5f9150565b926111dd90611026565b926111c4565b602081519101519060208110610fb857509056feddd9825d90f0e7b45de02899b3234a0de10e7d96097c1ff930f748f3e4fee205a26469706673582212200c678c37334effd83b68baa1dabdf8c1bcf8ce6e08b6f88e317d3a05ee9db62f64736f6c63430008180033","linkReferences":{}},"methodIdentifiers":{"authorizeGroupKey(uint256,uint256)":"d8d7facd","authorizedGroupKeys(bytes32)":"eb32d637","createOption(bytes32,address,bytes32,uint256)":"aefc5f15","isGroupKeyAuthorized(uint256,uint256)":"e9839712","options(bytes32)":"5b4c3543","owner()":"8da5cb5b","revokeGroupKey(uint256,uint256)":"1717fcc9","settle(bytes32,(bytes32,bytes32,bytes32,uint256,uint256,uint256,uint256,uint8,uint8),address)":"b59b6bd2","verify(bytes32,uint256,uint256,uint256,uint256)":"a1f31281","verifyAttestation((bytes32,bytes32,bytes32,uint256,uint256,uint256,uint256,uint8,uint8))":"959bb7a2","verifyRaw(bytes)":"457726e6"},"id":19}