{"abi":[{"type":"function","name":"verify","inputs":[{"name":"message_hash","type":"bytes32","internalType":"bytes32"},{"name":"pk_x","type":"uint256","internalType":"uint256"},{"name":"pk_y","type":"uint256","internalType":"uint256"},{"name":"sig_R_x","type":"uint256","internalType":"uint256"},{"name":"sig_s","type":"uint256","internalType":"uint256"}],"outputs":[{"name":"valid","type":"bool","internalType":"bool"}],"stateMutability":"view"}],"bytecode":{"object":"0x6080806040523461001657610391908161001b8239f35b5f80fdfe60806040526004361015610011575f80fd5b5f3560e01c63a1f3128114610024575f80fd5b3461009e5760a036600319011261009e5761009a610088602435606435908160a0528060c05260043560e0526060608052610060610100604052565b70014551231950b75fc4402da1732fc9bebe1960805160a0200691608435916044359061017b565b60405190151581529081906020820190565b0390f35b5f80fd5b634e487b7160e01b5f52604160045260245ffd5b60e0810190811067ffffffffffffffff8211176100d257604052565b6100a2565b6040810190811067ffffffffffffffff8211176100d257604052565b90601f8019910116810190811067ffffffffffffffff8211176100d257604052565b634e487b7160e01b5f52601160045260245ffd5b601c0390601c821161013757565b610115565b70014551231950b75fc4402da1732fc9bebe199081039190821161013757565b6401000003d0199081039190821161013757565b6040513d5f823e3d90fd5b90939291926101898461028f565b928315610285578280610246926102226102056101ff60016101f86101ec60209d6101cf6101dd5f9f604051926020918492830195869091604092825260208201520190565b03601f1981018352826100f3565b5190206001600160a01b031690565b6001600160a01b031690565b9c16610129565b60ff1690565b9170014551231950b75fc4402da1732fc9bebe199485910961013c565b926040519687960992855260ff166020850152604084015260608301526080820190565b838052039060015afa15610280575f516001600160a01b039081168015159290919083610274575b50505090565b161490505f808061026e565b610170565b5050505050505f90565b906007916401000003d0199283828181819509090860405160206102e48183019282845282604082015282606082015284608082015263400000f4600160fe1b0360a08201528660c082015260c081526100b6565b604051916102f1836100d7565b81835260c0828401918336843760055afa1561009e5761031090610339565b9260018416610329575b8380090361032457565b5f9150565b926103339061015c565b9261031a565b60208151910151906020811061034d575090565b5f199060200360031b1b169056fea2646970667358221220b06926db2eaba2f6403154b9297ca84128e20da8d67a6dc84c0cd7f461b6bd8c64736f6c63430008180033","linkReferences":{}},"methodIdentifiers":{"verify(bytes32,uint256,uint256,uint256,uint256)":"a1f31281"},"id":19}