{"abi":[{"type":"function","name":"INCOME_VALIDITY_SECONDS","inputs":[],"outputs":[{"name":"","type":"uint256","internalType":"uint256"}],"stateMutability":"view"},{"type":"function","name":"authorizeGroupKey","inputs":[{"name":"keyX","type":"uint256","internalType":"uint256"},{"name":"keyY","type":"uint256","internalType":"uint256"}],"outputs":[],"stateMutability":"nonpayable"},{"type":"function","name":"authorizedGroupKeys","inputs":[{"name":"","type":"bytes32","internalType":"bytes32"}],"outputs":[{"name":"","type":"bool","internalType":"bool"}],"stateMutability":"view"},{"type":"function","name":"hasVerifiedIncome","inputs":[{"name":"user","type":"address","internalType":"address"},{"name":"minIncome","type":"uint256","internalType":"uint256"}],"outputs":[{"name":"","type":"bool","internalType":"bool"}],"stateMutability":"view"},{"type":"function","name":"incomeTimestamp","inputs":[{"name":"","type":"address","internalType":"address"}],"outputs":[{"name":"","type":"uint256","internalType":"uint256"}],"stateMutability":"view"},{"type":"function","name":"isGroupKeyAuthorized","inputs":[{"name":"keyX","type":"uint256","internalType":"uint256"},{"name":"keyY","type":"uint256","internalType":"uint256"}],"outputs":[{"name":"","type":"bool","internalType":"bool"}],"stateMutability":"view"},{"type":"function","name":"owner","inputs":[],"outputs":[{"name":"","type":"address","internalType":"address"}],"stateMutability":"view"},{"type":"function","name":"revokeGroupKey","inputs":[{"name":"keyX","type":"uint256","internalType":"uint256"},{"name":"keyY","type":"uint256","internalType":"uint256"}],"outputs":[],"stateMutability":"nonpayable"},{"type":"function","name":"submitIncome","inputs":[{"name":"att","type":"tuple","internalType":"struct TLSAttestation.Attestation","components":[{"name":"statementDigest","type":"bytes32","internalType":"bytes32"},{"name":"dvrf_value","type":"bytes32","internalType":"bytes32"},{"name":"envelopeDigest","type":"bytes32","internalType":"bytes32"},{"name":"groupKeyX","type":"uint256","internalType":"uint256"},{"name":"groupKeyY","type":"uint256","internalType":"uint256"},{"name":"sigRX","type":"uint256","internalType":"uint256"},{"name":"sigS","type":"uint256","internalType":"uint256"},{"name":"threshold","type":"uint8","internalType":"uint8"},{"name":"verifierCount","type":"uint8","internalType":"uint8"}]},{"name":"income","type":"uint256","internalType":"uint256"},{"name":"timestamp","type":"uint256","internalType":"uint256"}],"outputs":[],"stateMutability":"nonpayable"},{"type":"function","name":"verifiedIncome","inputs":[{"name":"","type":"address","internalType":"address"}],"outputs":[{"name":"","type":"uint256","internalType":"uint256"}],"stateMutability":"view"},{"type":"function","name":"verify","inputs":[{"name":"message_hash","type":"bytes32","internalType":"bytes32"},{"name":"pk_x","type":"uint256","internalType":"uint256"},{"name":"pk_y","type":"uint256","internalType":"uint256"},{"name":"sig_R_x","type":"uint256","internalType":"uint256"},{"name":"sig_s","type":"uint256","internalType":"uint256"}],"outputs":[{"name":"valid","type":"bool","internalType":"bool"}],"stateMutability":"view"},{"type":"function","name":"verifyAttestation","inputs":[{"name":"att","type":"tuple","internalType":"struct TLSAttestation.Attestation","components":[{"name":"statementDigest","type":"bytes32","internalType":"bytes32"},{"name":"dvrf_value","type":"bytes32","internalType":"bytes32"},{"name":"envelopeDigest","type":"bytes32","internalType":"bytes32"},{"name":"groupKeyX","type":"uint256","internalType":"uint256"},{"name":"groupKeyY","type":"uint256","internalType":"uint256"},{"name":"sigRX","type":"uint256","internalType":"uint256"},{"name":"sigS","type":"uint256","internalType":"uint256"},{"name":"threshold","type":"uint8","internalType":"uint8"},{"name":"verifierCount","type":"uint8","internalType":"uint8"}]}],"outputs":[{"name":"","type":"bool","internalType":"bool"}],"stateMutability":"nonpayable"},{"type":"function","name":"verifyRaw","inputs":[{"name":"raw","type":"bytes","internalType":"bytes"}],"outputs":[{"name":"","type":"bool","internalType":"bool"}],"stateMutability":"nonpayable"},{"type":"event","name":"AttestationAccepted","inputs":[{"name":"statementDigest","type":"bytes32","indexed":true,"internalType":"bytes32"},{"name":"randValue","type":"bytes32","indexed":false,"internalType":"bytes32"},{"name":"threshold","type":"uint8","indexed":false,"internalType":"uint8"}],"anonymous":false},{"type":"event","name":"AttestationRejected","inputs":[{"name":"statementDigest","type":"bytes32","indexed":true,"internalType":"bytes32"},{"name":"reason","type":"string","indexed":false,"internalType":"string"}],"anonymous":false},{"type":"event","name":"GroupKeyAuthorized","inputs":[{"name":"keyX","type":"uint256","indexed":true,"internalType":"uint256"},{"name":"keyY","type":"uint256","indexed":false,"internalType":"uint256"}],"anonymous":false},{"type":"event","name":"GroupKeyRevoked","inputs":[{"name":"keyX","type":"uint256","indexed":true,"internalType":"uint256"},{"name":"keyY","type":"uint256","indexed":false,"internalType":"uint256"}],"anonymous":false}],"bytecode":{"object":"0x60a080604052346100315733608052611056908161003682396080518181816101240152818161026c01526104cd0152f35b5f80fdfe60806040526004361015610011575f80fd5b5f3560e01c80631717fcc9146100e4578063457726e6146100df5780634bd47060146100da5780638da5cb5b146100d557806392e53743146100d0578063959bb7a2146100cb5780639a84dcc1146100c6578063a1f31281146100c1578063a55d0e83146100bc578063d8d7facd146100b7578063e9839712146100b2578063eb32d637146100ad5763f7349f68146100a8575f80fd5b610589565b61055b565b61053a565b61048d565b610466565b61043c565b61041f565b6103f0565b61029b565b610257565b61021f565b61019c565b34610198576040366003190112610198576004357f30d6bc3d08e73db1b621ec0206f8e85e50e026a5bbd2c509a1e01b8ba4d6d9016020602435610152337f00000000000000000000000000000000000000000000000000000000000000006001600160a01b0316146106bf565b60408051838101868152602081018490529161017b90829084015b03601f198101835282610324565b5190205f525f825260405f2060ff198154169055604051908152a2005b5f80fd5b346101985760203660031901126101985767ffffffffffffffff6004358181116101985736602382011215610198578060040135918211610198573660248383010111610198576102059160246101f3920161070b565b60405190151581529081906020820190565b0390f35b600435906001600160a01b038216820361019857565b34610198576020366003190112610198576001600160a01b03610240610209565b165f526001602052602060405f2054604051908152f35b34610198575f366003190112610198576040517f00000000000000000000000000000000000000000000000000000000000000006001600160a01b03168152602090f35b34610198576020366003190112610198576001600160a01b036102bc610209565b165f526002602052602060405f2054604051908152f35b634e487b7160e01b5f52604160045260245ffd5b60e0810190811067ffffffffffffffff82111761030357604052565b6102d3565b6040810190811067ffffffffffffffff82111761030357604052565b90601f8019910116810190811067ffffffffffffffff82111761030357604052565b60405190610120820182811067ffffffffffffffff82111761030357604052565b60e4359060ff8216820361019857565b610104359060ff8216820361019857565b6101209060031901126101985761039d610346565b906004358252602435602083015260443560408301526064356060830152608435608083015260a43560a083015260c43560c08301526103db610367565b60e08301526103e8610377565b610100830152565b346101985761012036600319011261019857602061041561041036610388565b610842565b6040519015158152f35b34610198575f36600319011261019857602060405162278d008152f35b346101985760a0366003190112610198576020610415608435606435604435602435600435610a97565b34610198576040366003190112610198576020610415610484610209565b60243590610b5b565b34610198576040366003190112610198576004357f8b7e69c5be93891c0a94469c87107695bf29bcb2231db8e6f2364ae158e8ef8b60206024356104fb337f00000000000000000000000000000000000000000000000000000000000000006001600160a01b0316146106bf565b60408051838101868152602081018490529161051a908290840161016d565b5190205f525f825260405f20600160ff19825416179055604051908152a2005b34610198576040366003190112610198576020610415602435600435610b9c565b34610198576020366003190112610198576004355f525f602052602060ff60405f2054166040519015158152f35b3461019857366003190161016081126101985761012013610198576101243561014435906105fc6105ef6044356105e16105dc6105d86105d1845f52600360205260405f2090565b5460ff1690565b1590565b610bd0565b5f52600360205260405f2090565b805460ff19166001179055565b61061061060b61041036610388565b610c1c565b6040517f746c732d6174746573746174696f6e2f696e636f6d652f763100000000000000602082019081523360601b6bffffffffffffffffffffffff1916603a830152604e8201839052606e820184905261067e9161067281608e810161016d565b51902060043514610c5e565b61068a42831115610c9f565b6106a262278d0061069b8442610b4e565b1115610cde565b335f90815260016020908152604080832093909355600290522055005b156106c657565b60405162461bcd60e51b815260206004820152601960248201527f544c534174746573746174696f6e3a206e6f74206f776e6572000000000000006044820152606490fd5b61016082036107f2576104106107e46107cf6107c16107ef9561072c610d20565b9561074061073a8383610d75565b90610de9565b875261074f61073a8383610d83565b602088015261076161073a8383610d94565b604088015261077361073a8383610da5565b606088015261078561073a8383610db6565b608088015261079761073a8383610dc7565b60a08801526107a961073a8383610dd8565b60c08801526107df6107d56107cf6107c18585610e05565b356001600160f81b03191690565b60f81c90565b60ff1660e0890152565b610e28565b60ff16610100830152565b90565b60405162461bcd60e51b815260206004820152602260248201527f544c534174746573746174696f6e3a2065787065637465642033353220627974604482015261657360f01b6064820152608490fd5b80518015610a55575060e081019060ff61085d835160ff1690565b1615610a1057815160ff1660ff61088261087c61010085015160ff1690565b60ff1690565b9116116109bf576060810180516108a26105d86080850192835190610b9c565b61096c57906108c59160408401519151905160a08501519160c086015193610a97565b91821561091c577f618976a2b5926bfcf2218be3e245d72aa5cf745d31614323992994721137fd519061090060208451940151915160ff1690565b6040805192835260ff9091166020830152819081015b0390a290565b50515f80516020611001833981519152604051806109168160609060208152601760208201527f696e76616c69642046524f5354207369676e617475726500000000000000000060408201520190565b50509050515f80516020611001833981519152604051806109b881606090602081526016602082015275756e617574686f72697a65642067726f7570206b657960501b60408201520190565b0390a25f90565b9050515f80516020611001833981519152604051806109b88160609060208152601960208201527f7468726573686f6c64203e207665726966696572436f756e740000000000000060408201520190565b9050515f80516020611001833981519152604051806109b8816060906020815260116020820152707468726573686f6c64206973207a65726f60781b60408201520190565b90505f80516020611001833981519152604051806109b88160609060208152600f60208201526e195b5c1d1e481cdd185d195b595b9d608a1b60408201520190565b93919290926040516020810195838752856040830152606082015260608152608081019581871067ffffffffffffffff881117610303576107ef9660405270014551231950b75fc4402da1732fc9bebe19915190200693610e42565b634e487b7160e01b5f52601160045260245ffd5b601c0390601c8211610b1557565b610af3565b70014551231950b75fc4402da1732fc9bebe1990810391908211610b1557565b6401000003d01990810391908211610b1557565b91908203918211610b1557565b6001600160a01b03165f9081526001602052604090205410610b9857600260205260405f20544203428111610b155762278d0010610b9857600190565b5f90565b60408051602081019283529081019290925290610bbc816060810161016d565b5190205f525f60205260ff60405f20541690565b15610bd757565b60405162461bcd60e51b815260206004820152601d60248201527f4174746573746174696f6e20616c72656164792070726f6365737365640000006044820152606490fd5b15610c2357565b60405162461bcd60e51b815260206004820152601360248201527224b73b30b634b21030ba3a32b9ba30ba34b7b760691b6044820152606490fd5b15610c6557565b60405162461bcd60e51b81526020600482015260126024820152710a6e8c2e8cadacadce840dad2e6dac2e8c6d60731b6044820152606490fd5b15610ca657565b60405162461bcd60e51b815260206004820152601060248201526f04675747572652074696d657374616d760841b6044820152606490fd5b15610ce557565b60405162461bcd60e51b8152602060048201526013602482015272105d1d195cdd185d1a5bdb88195e1c1a5c9959606a1b6044820152606490fd5b60405190610120820182811067ffffffffffffffff821117610303576040525f610100838281528260208201528260408201528260608201528260808201528260a08201528260c08201528260e08201520152565b906020116101985790602090565b906040116101985760200190602090565b906060116101985760400190602090565b906080116101985760600190602090565b9060a0116101985760800190602090565b9060c0116101985760a00190602090565b9060e0116101985760c00190602090565b359060208110610df7575090565b5f199060200360031b1b1690565b9060ff1015610e145760ff0190565b634e487b7160e01b5f52603260045260245ffd5b61011f91821015610e14570190565b6040513d5f823e3d90fd5b9093929192610e5084610f42565b928315610f38578280610ef992610ed5610eb861087c6001610eb1610ea560209d61016d610e965f9f604051926020918492830195869091604092825260208201520190565b5190206001600160a01b031690565b6001600160a01b031690565b9c16610b07565b9170014551231950b75fc4402da1732fc9bebe1994859109610b1a565b926040519687960992855260ff166020850152604084015260608301526080820190565b838052039060015afa15610f33575f516001600160a01b039081168015159290919083610f27575b50505090565b161490505f8080610f21565b610e37565b5050505050505f90565b906007916401000003d019928382818181950909086040516020610f978183019282845282604082015282606082015284608082015263400000f4600160fe1b0360a08201528660c082015260c081526102e7565b60405191610fa483610308565b81835260c0828401918336843760055afa1561019857610fc390610fec565b9260018416610fdc575b83800903610fd757565b5f9150565b92610fe690610b3a565b92610fcd565b602081519101519060208110610df757509056feddd9825d90f0e7b45de02899b3234a0de10e7d96097c1ff930f748f3e4fee205a264697066735822122005cf5374d8a1f2155ec8407ccda32b6b87cd8c7cb6f59332f2d57dbceb7fa2a764736f6c63430008180033","linkReferences":{}},"methodIdentifiers":{"INCOME_VALIDITY_SECONDS()":"9a84dcc1","authorizeGroupKey(uint256,uint256)":"d8d7facd","authorizedGroupKeys(bytes32)":"eb32d637","hasVerifiedIncome(address,uint256)":"a55d0e83","incomeTimestamp(address)":"92e53743","isGroupKeyAuthorized(uint256,uint256)":"e9839712","owner()":"8da5cb5b","revokeGroupKey(uint256,uint256)":"1717fcc9","submitIncome((bytes32,bytes32,bytes32,uint256,uint256,uint256,uint256,uint8,uint8),uint256,uint256)":"f7349f68","verifiedIncome(address)":"4bd47060","verify(bytes32,uint256,uint256,uint256,uint256)":"a1f31281","verifyAttestation((bytes32,bytes32,bytes32,uint256,uint256,uint256,uint256,uint8,uint8))":"959bb7a2","verifyRaw(bytes)":"457726e6"},"id":19}