{"abi":[{"type":"constructor","inputs":[],"stateMutability":"nonpayable"},{"type":"function","name":"authorizeGroupKey","inputs":[{"name":"keyX","type":"uint256","internalType":"uint256"},{"name":"keyY","type":"uint256","internalType":"uint256"}],"outputs":[],"stateMutability":"nonpayable"},{"type":"function","name":"authorizedGroupKeys","inputs":[{"name":"","type":"bytes32","internalType":"bytes32"}],"outputs":[{"name":"","type":"bool","internalType":"bool"}],"stateMutability":"view"},{"type":"function","name":"isGroupKeyAuthorized","inputs":[{"name":"keyX","type":"uint256","internalType":"uint256"},{"name":"keyY","type":"uint256","internalType":"uint256"}],"outputs":[{"name":"","type":"bool","internalType":"bool"}],"stateMutability":"view"},{"type":"function","name":"owner","inputs":[],"outputs":[{"name":"","type":"address","internalType":"address"}],"stateMutability":"view"},{"type":"function","name":"revokeGroupKey","inputs":[{"name":"keyX","type":"uint256","internalType":"uint256"},{"name":"keyY","type":"uint256","internalType":"uint256"}],"outputs":[],"stateMutability":"nonpayable"},{"type":"function","name":"verify","inputs":[{"name":"message_hash","type":"bytes32","internalType":"bytes32"},{"name":"pk_x","type":"uint256","internalType":"uint256"},{"name":"pk_y","type":"uint256","internalType":"uint256"},{"name":"sig_R_x","type":"uint256","internalType":"uint256"},{"name":"sig_s","type":"uint256","internalType":"uint256"}],"outputs":[{"name":"valid","type":"bool","internalType":"bool"}],"stateMutability":"view"},{"type":"function","name":"verifyAttestation","inputs":[{"name":"att","type":"tuple","internalType":"struct TLSAttestation.Attestation","components":[{"name":"statementDigest","type":"bytes32","internalType":"bytes32"},{"name":"dvrf_value","type":"bytes32","internalType":"bytes32"},{"name":"envelopeDigest","type":"bytes32","internalType":"bytes32"},{"name":"groupKeyX","type":"uint256","internalType":"uint256"},{"name":"groupKeyY","type":"uint256","internalType":"uint256"},{"name":"sigRX","type":"uint256","internalType":"uint256"},{"name":"sigS","type":"uint256","internalType":"uint256"},{"name":"threshold","type":"uint8","internalType":"uint8"},{"name":"verifierCount","type":"uint8","internalType":"uint8"}]}],"outputs":[{"name":"","type":"bool","internalType":"bool"}],"stateMutability":"nonpayable"},{"type":"function","name":"verifyRaw","inputs":[{"name":"raw","type":"bytes","internalType":"bytes"}],"outputs":[{"name":"","type":"bool","internalType":"bool"}],"stateMutability":"nonpayable"},{"type":"event","name":"AttestationAccepted","inputs":[{"name":"statementDigest","type":"bytes32","indexed":true,"internalType":"bytes32"},{"name":"randValue","type":"bytes32","indexed":false,"internalType":"bytes32"},{"name":"threshold","type":"uint8","indexed":false,"internalType":"uint8"}],"anonymous":false},{"type":"event","name":"AttestationRejected","inputs":[{"name":"statementDigest","type":"bytes32","indexed":true,"internalType":"bytes32"},{"name":"reason","type":"string","indexed":false,"internalType":"string"}],"anonymous":false},{"type":"event","name":"GroupKeyAuthorized","inputs":[{"name":"keyX","type":"uint256","indexed":true,"internalType":"uint256"},{"name":"keyY","type":"uint256","indexed":false,"internalType":"uint256"}],"anonymous":false},{"type":"event","name":"GroupKeyRevoked","inputs":[{"name":"keyX","type":"uint256","indexed":true,"internalType":"uint256"},{"name":"keyY","type":"uint256","indexed":false,"internalType":"uint256"}],"anonymous":false}],"bytecode":{"object":"0x60a080604052346100305733608052610c599081610035823960805181818160d4015281816101ce015261039b0152f35b5f80fdfe60806040526004361015610011575f80fd5b5f3560e01c80631717fcc914610094578063457726e61461008f5780638da5cb5b1461008a578063959bb7a214610085578063a1f3128114610080578063d8d7facd1461007b578063e9839712146100765763eb32d63714610071575f80fd5b610429565b610408565b61035b565b610327565b6102b2565b6101b9565b61014c565b34610148576040366003190112610148576004357f30d6bc3d08e73db1b621ec0206f8e85e50e026a5bbd2c509a1e01b8ba4d6d9016020602435610102337f00000000000000000000000000000000000000000000000000000000000000006001600160a01b031614610457565b60408051838101868152602081018490529161012b90829084015b03601f19810183528261024e565b5190205f525f825260405f2060ff198154169055604051908152a2005b5f80fd5b346101485760203660031901126101485767ffffffffffffffff6004358181116101485736602382011215610148578060040135918211610148573660248383010111610148576101b59160246101a392016104a3565b60405190151581529081906020820190565b0390f35b34610148575f366003190112610148576040517f00000000000000000000000000000000000000000000000000000000000000006001600160a01b03168152602090f35b634e487b7160e01b5f52604160045260245ffd5b60e0810190811067ffffffffffffffff82111761022d57604052565b6101fd565b6040810190811067ffffffffffffffff82111761022d57604052565b90601f8019910116810190811067ffffffffffffffff82111761022d57604052565b60405190610120820182811067ffffffffffffffff82111761022d57604052565b60e4359060ff8216820361014857565b610104359060ff8216820361014857565b3461014857610120366003190112610148576101b56101a36102d2610270565b6004358152602435602082015260443560408201526064356060820152608435608082015260a43560a082015260c43560c082015261030f610291565b60e082015261031c6102a1565b6101008201526105df565b346101485760a0366003190112610148576020610351608435606435604435602435600435610838565b6040519015158152f35b34610148576040366003190112610148576004357f8b7e69c5be93891c0a94469c87107695bf29bcb2231db8e6f2364ae158e8ef8b60206024356103c9337f00000000000000000000000000000000000000000000000000000000000000006001600160a01b031614610457565b6040805183810186815260208101849052916103e8908290840161011d565b5190205f525f825260405f20600160ff19825416179055604051908152a2005b34610148576040366003190112610148576020610351602435600435610894565b34610148576020366003190112610148576004355f525f602052602060ff60405f2054166040519015158152f35b1561045e57565b60405162461bcd60e51b815260206004820152601960248201527f544c534174746573746174696f6e3a206e6f74206f776e6572000000000000006044820152606490fd5b610160820361058f5761058761057c61056761055961058c956104c46108c8565b956104d86104d2838361091d565b90610991565b87526104e76104d2838361092b565b60208801526104f96104d2838361093c565b604088015261050b6104d2838361094d565b606088015261051d6104d2838361095e565b608088015261052f6104d2838361096f565b60a08801526105416104d28383610980565b60c088015261057761056d61056761055985856109ad565b356001600160f81b03191690565b60f81c90565b60ff1660e0890152565b6109d0565b60ff16610100830152565b6105df565b90565b60405162461bcd60e51b815260206004820152602260248201527f544c534174746573746174696f6e3a2065787065637465642033353220627974604482015261657360f01b6064820152608490fd5b805180156107f6575060e081019060ff6105fa835160ff1690565b16156107b157815160ff1660ff61061f61061961010085015160ff1690565b60ff1690565b9116116107605760608101805161064361063f6080850192835190610894565b1590565b61070d57906106669160408401519151905160a08501519160c086015193610838565b9182156106bd577f618976a2b5926bfcf2218be3e245d72aa5cf745d31614323992994721137fd51906106a160208451940151915160ff1690565b6040805192835260ff9091166020830152819081015b0390a290565b50515f80516020610c04833981519152604051806106b78160609060208152601760208201527f696e76616c69642046524f5354207369676e617475726500000000000000000060408201520190565b50509050515f80516020610c048339815191526040518061075981606090602081526016602082015275756e617574686f72697a65642067726f7570206b657960501b60408201520190565b0390a25f90565b9050515f80516020610c04833981519152604051806107598160609060208152601960208201527f7468726573686f6c64203e207665726966696572436f756e740000000000000060408201520190565b9050515f80516020610c0483398151915260405180610759816060906020815260116020820152707468726573686f6c64206973207a65726f60781b60408201520190565b90505f80516020610c04833981519152604051806107598160609060208152600f60208201526e195b5c1d1e481cdd185d195b595b9d608a1b60408201520190565b93919290926040516020810195838752856040830152606082015260608152608081019581871067ffffffffffffffff88111761022d5761058c9660405270014551231950b75fc4402da1732fc9bebe19915190200693610a45565b604080516020810192835290810192909252906108b4816060810161011d565b5190205f525f60205260ff60405f20541690565b60405190610120820182811067ffffffffffffffff82111761022d576040525f610100838281528260208201528260408201528260608201528260808201528260a08201528260c08201528260e08201520152565b906020116101485790602090565b906040116101485760200190602090565b906060116101485760400190602090565b906080116101485760600190602090565b9060a0116101485760800190602090565b9060c0116101485760a00190602090565b9060e0116101485760c00190602090565b35906020811061099f575090565b5f199060200360031b1b1690565b9060ff10156109bc5760ff0190565b634e487b7160e01b5f52603260045260245ffd5b61011f918210156109bc570190565b634e487b7160e01b5f52601160045260245ffd5b601c0390601c8211610a0157565b6109df565b70014551231950b75fc4402da1732fc9bebe1990810391908211610a0157565b6401000003d01990810391908211610a0157565b6040513d5f823e3d90fd5b9093929192610a5384610b45565b928315610b3b578280610afc92610ad8610abb6106196001610ab4610aa860209d61011d610a995f9f604051926020918492830195869091604092825260208201520190565b5190206001600160a01b031690565b6001600160a01b031690565b9c166109f3565b9170014551231950b75fc4402da1732fc9bebe1994859109610a06565b926040519687960992855260ff166020850152604084015260608301526080820190565b838052039060015afa15610b36575f516001600160a01b039081168015159290919083610b2a575b50505090565b161490505f8080610b24565b610a3a565b5050505050505f90565b906007916401000003d019928382818181950909086040516020610b9a8183019282845282604082015282606082015284608082015263400000f4600160fe1b0360a08201528660c082015260c08152610211565b60405191610ba783610232565b81835260c0828401918336843760055afa1561014857610bc690610bef565b9260018416610bdf575b83800903610bda57565b5f9150565b92610be990610a26565b92610bd0565b60208151910151906020811061099f57509056feddd9825d90f0e7b45de02899b3234a0de10e7d96097c1ff930f748f3e4fee205a26469706673582212206d163b24e5b85b3d4b522fd6e5a70b9a51c8bd169b4403ce21d8ee6fdc8d850464736f6c63430008180033","linkReferences":{}},"methodIdentifiers":{"authorizeGroupKey(uint256,uint256)":"d8d7facd","authorizedGroupKeys(bytes32)":"eb32d637","isGroupKeyAuthorized(uint256,uint256)":"e9839712","owner()":"8da5cb5b","revokeGroupKey(uint256,uint256)":"1717fcc9","verify(bytes32,uint256,uint256,uint256,uint256)":"a1f31281","verifyAttestation((bytes32,bytes32,bytes32,uint256,uint256,uint256,uint256,uint8,uint8))":"959bb7a2","verifyRaw(bytes)":"457726e6"},"id":19}