{"abi":[{"type":"constructor","inputs":[],"stateMutability":"nonpayable"},{"type":"function","name":"icHspMode1","inputs":[{"name":"","type":"uint256","internalType":"uint256"},{"name":"","type":"uint256","internalType":"uint256"}],"outputs":[{"name":"","type":"uint256","internalType":"uint256"}],"stateMutability":"view"},{"type":"function","name":"icHspMode2","inputs":[{"name":"","type":"uint256","internalType":"uint256"},{"name":"","type":"uint256","internalType":"uint256"}],"outputs":[{"name":"","type":"uint256","internalType":"uint256"}],"stateMutability":"view"},{"type":"function","name":"icSessionBinding","inputs":[{"name":"","type":"uint256","internalType":"uint256"},{"name":"","type":"uint256","internalType":"uint256"}],"outputs":[{"name":"","type":"uint256","internalType":"uint256"}],"stateMutability":"view"},{"type":"function","name":"owner","inputs":[],"outputs":[{"name":"","type":"address","internalType":"address"}],"stateMutability":"view"},{"type":"function","name":"setHspMode1VK","inputs":[{"name":"vk","type":"tuple","internalType":"struct DctlsVerifier.VerifyingKey","components":[{"name":"alpha_x","type":"uint256","internalType":"uint256"},{"name":"alpha_y","type":"uint256","internalType":"uint256"},{"name":"beta_x0","type":"uint256","internalType":"uint256"},{"name":"beta_x1","type":"uint256","internalType":"uint256"},{"name":"beta_y0","type":"uint256","internalType":"uint256"},{"name":"beta_y1","type":"uint256","internalType":"uint256"},{"name":"gamma_x0","type":"uint256","internalType":"uint256"},{"name":"gamma_x1","type":"uint256","internalType":"uint256"},{"name":"gamma_y0","type":"uint256","internalType":"uint256"},{"name":"gamma_y1","type":"uint256","internalType":"uint256"},{"name":"delta_x0","type":"uint256","internalType":"uint256"},{"name":"delta_x1","type":"uint256","internalType":"uint256"},{"name":"delta_y0","type":"uint256","internalType":"uint256"},{"name":"delta_y1","type":"uint256","internalType":"uint256"}]},{"name":"ic","type":"uint256[2][3]","internalType":"uint256[2][3]"}],"outputs":[],"stateMutability":"nonpayable"},{"type":"function","name":"setHspMode2VK","inputs":[{"name":"vk","type":"tuple","internalType":"struct DctlsVerifier.VerifyingKey","components":[{"name":"alpha_x","type":"uint256","internalType":"uint256"},{"name":"alpha_y","type":"uint256","internalType":"uint256"},{"name":"beta_x0","type":"uint256","internalType":"uint256"},{"name":"beta_x1","type":"uint256","internalType":"uint256"},{"name":"beta_y0","type":"uint256","internalType":"uint256"},{"name":"beta_y1","type":"uint256","internalType":"uint256"},{"name":"gamma_x0","type":"uint256","internalType":"uint256"},{"name":"gamma_x1","type":"uint256","internalType":"uint256"},{"name":"gamma_y0","type":"uint256","internalType":"uint256"},{"name":"gamma_y1","type":"uint256","internalType":"uint256"},{"name":"delta_x0","type":"uint256","internalType":"uint256"},{"name":"delta_x1","type":"uint256","internalType":"uint256"},{"name":"delta_y0","type":"uint256","internalType":"uint256"},{"name":"delta_y1","type":"uint256","internalType":"uint256"}]},{"name":"ic","type":"uint256[2][4]","internalType":"uint256[2][4]"}],"outputs":[],"stateMutability":"nonpayable"},{"type":"function","name":"setSessionBindingVK","inputs":[{"name":"vk","type":"tuple","internalType":"struct DctlsVerifier.VerifyingKey","components":[{"name":"alpha_x","type":"uint256","internalType":"uint256"},{"name":"alpha_y","type":"uint256","internalType":"uint256"},{"name":"beta_x0","type":"uint256","internalType":"uint256"},{"name":"beta_x1","type":"uint256","internalType":"uint256"},{"name":"beta_y0","type":"uint256","internalType":"uint256"},{"name":"beta_y1","type":"uint256","internalType":"uint256"},{"name":"gamma_x0","type":"uint256","internalType":"uint256"},{"name":"gamma_x1","type":"uint256","internalType":"uint256"},{"name":"gamma_y0","type":"uint256","internalType":"uint256"},{"name":"gamma_y1","type":"uint256","internalType":"uint256"},{"name":"delta_x0","type":"uint256","internalType":"uint256"},{"name":"delta_x1","type":"uint256","internalType":"uint256"},{"name":"delta_y0","type":"uint256","internalType":"uint256"},{"name":"delta_y1","type":"uint256","internalType":"uint256"}]},{"name":"ic","type":"uint256[2][5]","internalType":"uint256[2][5]"}],"outputs":[],"stateMutability":"nonpayable"},{"type":"function","name":"verifyFullAttestation","inputs":[{"name":"hspProof","type":"tuple","internalType":"struct DctlsVerifier.Proof","components":[{"name":"a_x","type":"uint256","internalType":"uint256"},{"name":"a_y","type":"uint256","internalType":"uint256"},{"name":"b_x0","type":"uint256","internalType":"uint256"},{"name":"b_x1","type":"uint256","internalType":"uint256"},{"name":"b_y0","type":"uint256","internalType":"uint256"},{"name":"b_y1","type":"uint256","internalType":"uint256"},{"name":"c_x","type":"uint256","internalType":"uint256"},{"name":"c_y","type":"uint256","internalType":"uint256"}]},{"name":"sessionProof","type":"tuple","internalType":"struct DctlsVerifier.Proof","components":[{"name":"a_x","type":"uint256","internalType":"uint256"},{"name":"a_y","type":"uint256","internalType":"uint256"},{"name":"b_x0","type":"uint256","internalType":"uint256"},{"name":"b_x1","type":"uint256","internalType":"uint256"},{"name":"b_y0","type":"uint256","internalType":"uint256"},{"name":"b_y1","type":"uint256","internalType":"uint256"},{"name":"c_x","type":"uint256","internalType":"uint256"},{"name":"c_y","type":"uint256","internalType":"uint256"}]},{"name":"kMacCommitment","type":"uint256","internalType":"uint256"},{"name":"randBinding","type":"uint256","internalType":"uint256"},{"name":"pmsHash","type":"uint256","internalType":"uint256"},{"name":"macCommitmentQ","type":"uint256","internalType":"uint256"},{"name":"macCommitmentR","type":"uint256","internalType":"uint256"}],"outputs":[],"stateMutability":"view"},{"type":"function","name":"verifyHspMode1","inputs":[{"name":"proof","type":"tuple","internalType":"struct DctlsVerifier.Proof","components":[{"name":"a_x","type":"uint256","internalType":"uint256"},{"name":"a_y","type":"uint256","internalType":"uint256"},{"name":"b_x0","type":"uint256","internalType":"uint256"},{"name":"b_x1","type":"uint256","internalType":"uint256"},{"name":"b_y0","type":"uint256","internalType":"uint256"},{"name":"b_y1","type":"uint256","internalType":"uint256"},{"name":"c_x","type":"uint256","internalType":"uint256"},{"name":"c_y","type":"uint256","internalType":"uint256"}]},{"name":"kMacCommitment","type":"uint256","internalType":"uint256"},{"name":"randBinding","type":"uint256","internalType":"uint256"}],"outputs":[{"name":"valid","type":"bool","internalType":"bool"}],"stateMutability":"view"},{"type":"function","name":"verifyHspMode2","inputs":[{"name":"proof","type":"tuple","internalType":"struct DctlsVerifier.Proof","components":[{"name":"a_x","type":"uint256","internalType":"uint256"},{"name":"a_y","type":"uint256","internalType":"uint256"},{"name":"b_x0","type":"uint256","internalType":"uint256"},{"name":"b_x1","type":"uint256","internalType":"uint256"},{"name":"b_y0","type":"uint256","internalType":"uint256"},{"name":"b_y1","type":"uint256","internalType":"uint256"},{"name":"c_x","type":"uint256","internalType":"uint256"},{"name":"c_y","type":"uint256","internalType":"uint256"}]},{"name":"kMacCommitment","type":"uint256","internalType":"uint256"},{"name":"randBinding","type":"uint256","internalType":"uint256"},{"name":"pmsHash","type":"uint256","internalType":"uint256"}],"outputs":[{"name":"valid","type":"bool","internalType":"bool"}],"stateMutability":"view"},{"type":"function","name":"verifySessionBinding","inputs":[{"name":"proof","type":"tuple","internalType":"struct DctlsVerifier.Proof","components":[{"name":"a_x","type":"uint256","internalType":"uint256"},{"name":"a_y","type":"uint256","internalType":"uint256"},{"name":"b_x0","type":"uint256","internalType":"uint256"},{"name":"b_x1","type":"uint256","internalType":"uint256"},{"name":"b_y0","type":"uint256","internalType":"uint256"},{"name":"b_y1","type":"uint256","internalType":"uint256"},{"name":"c_x","type":"uint256","internalType":"uint256"},{"name":"c_y","type":"uint256","internalType":"uint256"}]},{"name":"kMacCommitment","type":"uint256","internalType":"uint256"},{"name":"randBinding","type":"uint256","internalType":"uint256"},{"name":"macCommitmentQ","type":"uint256","internalType":"uint256"},{"name":"macCommitmentR","type":"uint256","internalType":"uint256"}],"outputs":[{"name":"valid","type":"bool","internalType":"bool"}],"stateMutability":"view"},{"type":"function","name":"vkHspMode1","inputs":[],"outputs":[{"name":"alpha_x","type":"uint256","internalType":"uint256"},{"name":"alpha_y","type":"uint256","internalType":"uint256"},{"name":"beta_x0","type":"uint256","internalType":"uint256"},{"name":"beta_x1","type":"uint256","internalType":"uint256"},{"name":"beta_y0","type":"uint256","internalType":"uint256"},{"name":"beta_y1","type":"uint256","internalType":"uint256"},{"name":"gamma_x0","type":"uint256","internalType":"uint256"},{"name":"gamma_x1","type":"uint256","internalType":"uint256"},{"name":"gamma_y0","type":"uint256","internalType":"uint256"},{"name":"gamma_y1","type":"uint256","internalType":"uint256"},{"name":"delta_x0","type":"uint256","internalType":"uint256"},{"name":"delta_x1","type":"uint256","internalType":"uint256"},{"name":"delta_y0","type":"uint256","internalType":"uint256"},{"name":"delta_y1","type":"uint256","internalType":"uint256"}],"stateMutability":"view"},{"type":"function","name":"vkHspMode2","inputs":[],"outputs":[{"name":"alpha_x","type":"uint256","internalType":"uint256"},{"name":"alpha_y","type":"uint256","internalType":"uint256"},{"name":"beta_x0","type":"uint256","internalType":"uint256"},{"name":"beta_x1","type":"uint256","internalType":"uint256"},{"name":"beta_y0","type":"uint256","internalType":"uint256"},{"name":"beta_y1","type":"uint256","internalType":"uint256"},{"name":"gamma_x0","type":"uint256","internalType":"uint256"},{"name":"gamma_x1","type":"uint256","internalType":"uint256"},{"name":"gamma_y0","type":"uint256","internalType":"uint256"},{"name":"gamma_y1","type":"uint256","internalType":"uint256"},{"name":"delta_x0","type":"uint256","internalType":"uint256"},{"name":"delta_x1","type":"uint256","internalType":"uint256"},{"name":"delta_y0","type":"uint256","internalType":"uint256"},{"name":"delta_y1","type":"uint256","internalType":"uint256"}],"stateMutability":"view"},{"type":"function","name":"vkSessionBinding","inputs":[],"outputs":[{"name":"alpha_x","type":"uint256","internalType":"uint256"},{"name":"alpha_y","type":"uint256","internalType":"uint256"},{"name":"beta_x0","type":"uint256","internalType":"uint256"},{"name":"beta_x1","type":"uint256","internalType":"uint256"},{"name":"beta_y0","type":"uint256","internalType":"uint256"},{"name":"beta_y1","type":"uint256","internalType":"uint256"},{"name":"gamma_x0","type":"uint256","internalType":"uint256"},{"name":"gamma_x1","type":"uint256","internalType":"uint256"},{"name":"gamma_y0","type":"uint256","internalType":"uint256"},{"name":"gamma_y1","type":"uint256","internalType":"uint256"},{"name":"delta_x0","type":"uint256","internalType":"uint256"},{"name":"delta_x1","type":"uint256","internalType":"uint256"},{"name":"delta_y0","type":"uint256","internalType":"uint256"},{"name":"delta_y1","type":"uint256","internalType":"uint256"}],"stateMutability":"view"},{"type":"event","name":"VKRegistered","inputs":[{"name":"circuit","type":"string","indexed":false,"internalType":"string"}],"anonymous":false}],"bytecode":{"object":"0x60a080604052346100385733608052611723908161003d82396080518181816104070152818161071c0152818161088c01526108ed0152f35b5f80fdfe60806040526004361015610011575f80fd5b5f3560e01c80630c4e236c146100f45780632ca0529e146100ef57806338385b16146100ea57806354bf4fca146100e557806355cd8cc6146100e0578063650c7a78146100db5780637bb458c8146100d65780637f4a48e8146100d15780637f5b0b3a146100cc5780638779dbea146100c75780638da5cb5b146100c257806396c6cd4d146100bd578063cf202d9c146100b85763e2e9f6a1146100b3575f80fd5b610ab4565b610a56565b6108bb565b610877565b6106ea565b61069a565b61064b565b610601565b610561565b6103d5565b610302565b61026b565b61021b565b610123565b61010090600319011261010b57600490565b5f80fd5b6101009061010319011261010b5761010490565b3461010b5761018036600319011261010b5761013e366100f9565b610146610b78565b8051156101b6576101043560208201528051600110156101b6576101243560408201528051600210156101b6576101b2916101a0916101443560608201526101643561019182610bdb565b5261019a610e19565b91610ff0565b60405190151581529081906020820190565b0390f35b6105ca565b9b99979593919e9d9c9a98969492909e6101c08d019f8d5260208d015260408c015260608b015260808a015260a089015260c088015260e08701526101008601526101208501526101408401526101608301526101808201526101a00152565b3461010b575f36600319011261010b57601454601554906101b2601654601754601854601954601a54601b54601c5490601d5492601e5494601f5496602054986021549a6040519e8f9e8f6101bb565b3461010b5761014036600319011261010b57610286366100f9565b61028e610b93565b8051156101b657610104356020820152805191600192600110156101b6576101243560408301526102bd610da3565b925f5b600381106102d6576101b26101a08686866111f5565b806102e68392831b600e01610de5565b6102f08288610c18565b526102fb8187610c18565b50016102c0565b3461010b576102a036600319011261010b5761031d366100f9565b6103263661010f565b610224359061020435610337610bc0565b928351156101b6578160208501528351600110156101b65761038461037f6103c196868460406103bc9901526102443561037082610beb565b526103796114b3565b91611354565b610c2c565b61038c610b78565b9161039683610bfb565b526103a082610c08565b52610264356103ae82610beb565b526102843561019182610bdb565b610c78565b005b6101c090600319011261010b57600490565b3461010b5761028036600319011261010b576103f0366103c3565b366102841161010b576104e1906101a090610435337f00000000000000000000000000000000000000000000000000000000000000006001600160a01b031614610cce565b80355f556104466020820135600155565b6104536040820135600255565b6104606060820135600355565b61046d6080820135600455565b61047a60a0820135600555565b61048760c0820135600655565b61049460e0820135600755565b6104a2610100820135600855565b6104b0610120820135600955565b6104be610140820135600a55565b6104cc610160820135600b55565b6104da610180820135600c55565b0135600d55565b5f5b6003811061053d577f20cf2852de69c01c4edb2971b3636fe4f1a78b61099943f54e776564c7d726dc60405180610538816060906020815260096020820152686873705f6d6f64653160b81b60408201520190565b0390a1005b8061055b61054c600193610d1a565b610555836105de565b90610d2d565b016104e3565b3461010b5761016036600319011261010b5761057c366100f9565b610584610bc0565b8051156101b6576101043560208201528051600110156101b6576101243560408201528051600210156101b6576101b2916101a0916101443560608201526103796114b3565b634e487b7160e01b5f52603260045260245ffd5b60038110156101b65760011b600e01905f90565b60028210156101b65701905f90565b3461010b57604036600319011261010b57602435600435600381101561010b57600282101561010b5760209161063c9160011b600e016105f2565b90549060031b1c604051908152f35b3461010b575f36600319011261010b575f54600154906101b26002546003546004546005546006546007546008549060095492600a5494600b5496600c5498600d549a6040519e8f9e8f6101bb565b3461010b575f36600319011261010b57602a54602b54906101b2602c54602d54602e54602f5460305460315460325490603354926034549460355496603654986037549a6040519e8f9e8f6101bb565b3461010b5761030036600319011261010b57610705366103c3565b366103041161010b576107fc906101a09061074a337f00000000000000000000000000000000000000000000000000000000000000006001600160a01b031614610cce565b6107548135602a55565b6107616020820135602b55565b61076e6040820135602c55565b61077b6060820135602d55565b6107886080820135602e55565b61079560a0820135602f55565b6107a260c0820135603055565b6107af60e0820135603155565b6107bd610100820135603255565b6107cb610120820135603355565b6107d9610140820135603455565b6107e7610160820135603555565b6107f5610180820135603655565b0135603755565b5f5b60058110610859577f20cf2852de69c01c4edb2971b3636fe4f1a78b61099943f54e776564c7d726dc604051806105388160609060208152600f60208201526e73657373696f6e5f62696e64696e6760881b60408201520190565b80610871610868600193610d69565b61055583610aa0565b016107fe565b3461010b575f36600319011261010b576040517f00000000000000000000000000000000000000000000000000000000000000006001600160a01b03168152602090f35b3461010b576102c036600319011261010b576108d6366103c3565b366102c41161010b576109cd906101a09061091b337f00000000000000000000000000000000000000000000000000000000000000006001600160a01b031614610cce565b6109258135601455565b6109326020820135601555565b61093f6040820135601655565b61094c6060820135601755565b6109596080820135601855565b61096660a0820135601955565b61097360c0820135601a55565b61098060e0820135601b55565b61098e610100820135601c55565b61099c610120820135601d55565b6109aa610140820135601e55565b6109b8610160820135601f55565b6109c6610180820135602055565b0135602155565b5f5b60048110610a24577f20cf2852de69c01c4edb2971b3636fe4f1a78b61099943f54e776564c7d726dc60405180610538816060906020815260096020820152683439b82fb6b7b2329960b91b60408201520190565b80610a3c610a33600193610d7c565b61055583610a42565b016109cf565b60048110156101b65760011b602201905f90565b3461010b57604036600319011261010b5760043560243590600481101561010b57600282101561010b57602091610a929160011b6022016105f2565b90546040519160031b1c8152f35b60058110156101b65760011b603801905f90565b3461010b57604036600319011261010b57602435600435600581101561010b57600282101561010b57602091610a929160011b6038016105f2565b634e487b7160e01b5f52604160045260245ffd5b60a0810190811067ffffffffffffffff821117610b1f57604052565b610aef565b6080810190811067ffffffffffffffff821117610b1f57604052565b6040810190811067ffffffffffffffff821117610b1f57604052565b60c0810190811067ffffffffffffffff821117610b1f57604052565b60405190610b8582610b03565b600482526080366020840137565b604051906060820182811067ffffffffffffffff821117610b1f5760405260028252604082602036910137565b60405190610bcd82610b24565b600382526060366020840137565b8051600310156101b65760800190565b8051600210156101b65760600190565b8051156101b65760200190565b8051600110156101b65760400190565b80518210156101b65760209160051b010190565b15610c3357565b60405162461bcd60e51b815260206004820152601d60248201527f4463746c7356657269666965723a2070695f48535020696e76616c69640000006044820152606490fd5b15610c7f57565b60405162461bcd60e51b815260206004820152602160248201527f4463746c7356657269666965723a2070695f74686574615f7320696e76616c696044820152601960fa1b6064820152608490fd5b15610cd557565b60405162461bcd60e51b815260206004820152601860248201527f4463746c7356657269666965723a206e6f74206f776e657200000000000000006044820152606490fd5b60038110156101b65760061b6101c40190565b9190610d56575f5b60028110610d4257505050565b600190602083359301928185015501610d35565b634e487b7160e01b5f525f60045260245ffd5b60058110156101b65760061b6101c40190565b60048110156101b65760061b6101c40190565b60405190610d9c82610b40565b6040368337565b604090604051610db281610b24565b6003815280925f5b60608110610dc757505050565b6020908251610dd581610b40565b8336823782828601015201610dba565b60405191905f835b60028210610e0357505050610e0182610b40565b565b6001602081928554815201930191019091610ded565b6040805190610e2782610b5c565b600590600583525f5b60a08110610e755750505f5b818110610e4857505090565b80610e59600192831b603801610de5565b610e638286610c18565b52610e6e8185610c18565b5001610e3c565b6020908251610e8381610b40565b8336823782828701015201610e30565b9060018201809211610ea157565b634e487b7160e01b5f52601160045260245ffd5b15610ebc57565b60405162461bcd60e51b815260206004820152602360248201527f4463746c7356657269666965723a20696e70757420636f756e74206d69736d616044820152620e8c6d60eb1b6064820152608490fd5b60405190610320820182811067ffffffffffffffff821117610b1f57604052610300808352366020840137565b3d15610f7f5767ffffffffffffffff903d828111610b1f5760405192601f8201601f19908116603f0116840190811184821017610b1f5760405282523d5f602084013e565b606090565b15610f8b57565b60405162461bcd60e51b815260206004820152602860248201527f4463746c7356657269666965723a2070616972696e6720707265636f6d70696c604482015267194819985a5b195960c21b6064820152608490fd5b9081602091031261010b575190565b919290926110096110018551610e93565b825114610eb5565b611011610d8f565b9161101b82610bfb565b5151835261103261102b83610bfb565b5160200190565b51602090818501525f935b86518510156110815761107960019161107361106161105b89610e93565b88610c18565b5161106c898c610c18565b519061157c565b90611636565b94019361103d565b919550935f935083925061117c9061113761109a610f0d565b82356020820152828801356040820152936110db60a0840135608085013560608601356040870135899160c093916060840152608083015260a08201520152565b6110f3602a54602b5490876101009160e08201520152565b611121602c54602d54602e5490602f5492899161018093916101208401526101408301526101608201520152565b87815191015190856101c0916101a08201520152565b6111656030546031546032549060335492879161024093916101e08401526102008301526102208201520152565b60c081013561026084015260e00135610280830152565b6111aa6034546035546036549060375492859161030093916102a08401526102c08301526102e08201520152565b838151910160085afa906111c56111bf610f3a565b92610f84565b81519181831491826111d9575b5050905090565b6111ec9250806001948301019101610fe1565b14805f806111d2565b919290926112066110018551610e93565b61120e610d8f565b9161121882610bfb565b5151835261122861102b83610bfb565b51602090818501525f935b86518510156112595761125160019161107361106161105b89610e93565b940193611233565b919550935f9350839250611326906112f8611272610f0d565b82356020820152828801356040820152936112b360a0840135608085013560608601356040870135899160c093916060840152608083015260a08201520152565b6112ca865460015490876101009160e08201520152565b6111216002546003546004549060055492899161018093916101208401526101408301526101608201520152565b6111656006546007546008549060095492879161024093916101e08401526102008301526102208201520152565b6111aa600a54600b54600c5490600d5492859161030093916102a08401526102c08301526102e08201520152565b919290926113656110018551610e93565b61136d610d8f565b9161137782610bfb565b5151835261138761102b83610bfb565b51602090818501525f935b86518510156113b8576113b060019161107361106161105b89610e93565b940193611392565b919550935f9350839250611486906114586113d1610f0d565b823560208201528288013560408201529361141260a0840135608085013560608601356040870135899160c093916060840152608083015260a08201520152565b61142a60145460155490876101009160e08201520152565b6111216016546017546018549060195492899161018093916101208401526101408301526101608201520152565b611165601a54601b54601c5490601d5492879161024093916101e08401526102008301526102208201520152565b6111aa601e54601f5486549060215492859161030093916102a08401526102c08301526102e08201520152565b60408051906114c182610b03565b600490600483525f5b6080811061150f5750505f5b8181106114e257505090565b806114f3600192831b602201610de5565b6114fd8286610c18565b526115088185610c18565b50016114d6565b602090825161151d81610b40565b83368237828287010152016114ca565b9060408282031261010b5780601f8301121561010b576040519161155083610b40565b82906040810192831161010b57905b82821061156c5750505090565b815181526020918201910161155f565b5f919082916040805161158e81610b40565b3690376020825192015190604051916020830193845260408301526060820152606081526115bb81610b24565b519060075afa6115c9610f3a565b90156115e557806020806115e29351830101910161152d565b90565b60405162461bcd60e51b8152602060048201526024808201527f4463746c7356657269666965723a20626e3235365363616c61724d756c2066616044820152631a5b195960e21b6064820152608490fd5b91905f80916040805161164881610b40565b3690378451906020809601519086815191015190604051928884019485526040840152606083015260808201526080815261168281610b03565b519060065afa611690610f3a565b90156116a857826115e292938251830101910161152d565b60405162461bcd60e51b815260048101849052601e60248201527f4463746c7356657269666965723a20626e323536416464206661696c656400006044820152606490fdfea2646970667358221220fd14c8ad4c631d6d579f9f04a6b4232c386aa0830eace42aafde600dade95cb464736f6c63430008180033","linkReferences":{}},"methodIdentifiers":{"icHspMode1(uint256,uint256)":"7bb458c8","icHspMode2(uint256,uint256)":"cf202d9c","icSessionBinding(uint256,uint256)":"e2e9f6a1","owner()":"8da5cb5b","setHspMode1VK((uint256,uint256,uint256,uint256,uint256,uint256,uint256,uint256,uint256,uint256,uint256,uint256,uint256,uint256),uint256[2][3])":"55cd8cc6","setHspMode2VK((uint256,uint256,uint256,uint256,uint256,uint256,uint256,uint256,uint256,uint256,uint256,uint256,uint256,uint256),uint256[2][4])":"96c6cd4d","setSessionBindingVK((uint256,uint256,uint256,uint256,uint256,uint256,uint256,uint256,uint256,uint256,uint256,uint256,uint256,uint256),uint256[2][5])":"8779dbea","verifyFullAttestation((uint256,uint256,uint256,uint256,uint256,uint256,uint256,uint256),(uint256,uint256,uint256,uint256,uint256,uint256,uint256,uint256),uint256,uint256,uint256,uint256,uint256)":"54bf4fca","verifyHspMode1((uint256,uint256,uint256,uint256,uint256,uint256,uint256,uint256),uint256,uint256)":"38385b16","verifyHspMode2((uint256,uint256,uint256,uint256,uint256,uint256,uint256,uint256),uint256,uint256,uint256)":"650c7a78","verifySessionBinding((uint256,uint256,uint256,uint256,uint256,uint256,uint256,uint256),uint256,uint256,uint256,uint256)":"0c4e236c","vkHspMode1()":"7f4a48e8","vkHspMode2()":"2ca0529e","vkSessionBinding()":"7f5b0b3a"},"id":19}